{
  "contractName": "Transfer",
  "abi": [
    {
      "inputs": [],
      "payable": false,
      "stateMutability": "nonpayable",
      "type": "constructor"
    },
    {
      "constant": true,
      "inputs": [],
      "name": "admin",
      "outputs": [
        {
          "internalType": "address",
          "name": "",
          "type": "address"
        }
      ],
      "payable": false,
      "stateMutability": "view",
      "type": "function"
    },
    {
      "constant": true,
      "inputs": [],
      "name": "lasTransfer",
      "outputs": [
        {
          "internalType": "uint256",
          "name": "",
          "type": "uint256"
        }
      ],
      "payable": false,
      "stateMutability": "view",
      "type": "function"
    },
    {
      "constant": false,
      "inputs": [
        {
          "internalType": "uint256",
          "name": "completed",
          "type": "uint256"
        }
      ],
      "name": "setTransferCompleted",
      "outputs": [],
      "payable": false,
      "stateMutability": "nonpayable",
      "type": "function"
    },
    {
      "constant": false,
      "inputs": [
        {
          "internalType": "address",
          "name": "newAdmin",
          "type": "address"
        }
      ],
      "name": "upgradeTransfer",
      "outputs": [],
      "payable": false,
      "stateMutability": "nonpayable",
      "type": "function"
    }
  ],
  "bytecode": "0x608060405234801561001057600080fd5b50336000806101000a81548173ffffffffffffffffffffffffffffffffffffffff021916908373ffffffffffffffffffffffffffffffffffffffff16021790555061038e806100606000396000f3fe608060405234801561001057600080fd5b506004361061004b5760003560e01c80628df247146100505780630629a3a11461009457806316d6db92146100c2578063f851a440146100e0575b600080fd5b6100926004803603602081101561006657600080fd5b81019080803573ffffffffffffffffffffffffffffffffffffffff16906020019092919050505061012a565b005b6100c0600480360360208110156100aa57600080fd5b8101908080359060200190929190505050610262565b005b6100ca61032e565b6040518082815260200191505060405180910390f35b6100e8610334565b604051808273ffffffffffffffffffffffffffffffffffffffff1673ffffffffffffffffffffffffffffffffffffffff16815260200191505060405180910390f35b6000809054906101000a900473ffffffffffffffffffffffffffffffffffffffff1673ffffffffffffffffffffffffffffffffffffffff163373ffffffffffffffffffffffffffffffffffffffff16146101ec576040517f08c379a000000000000000000000000000000000000000000000000000000000815260040180806020018281038252600e8152602001807f6f6e6c79206f776e65722063616e00000000000000000000000000000000000081525060200191505060405180910390fd5b60008190508073ffffffffffffffffffffffffffffffffffffffff16630629a3a16001546040518263ffffffff1660e01b815260040180828152602001915050600060405180830381600087803b15801561024657600080fd5b505af115801561025a573d6000803e3d6000fd5b505050505050565b6000809054906101000a900473ffffffffffffffffffffffffffffffffffffffff1673ffffffffffffffffffffffffffffffffffffffff163373ffffffffffffffffffffffffffffffffffffffff1614610324576040517f08c379a000000000000000000000000000000000000000000000000000000000815260040180806020018281038252600e8152602001807f6f6e6c79206f776e65722063616e00000000000000000000000000000000000081525060200191505060405180910390fd5b8060018190555050565b60015481565b6000809054906101000a900473ffffffffffffffffffffffffffffffffffffffff168156fea265627a7a72315820bab7929e08f290ac96dad9f9f93953f5551ce78922d7edfffd8f0026682d47ad64736f6c63430005110032",
  "source": "//SPDX-License-Identifier: UNLICENSED\r\npragma solidity ^0.5.0;\r\n\r\ncontract Transfer {\r\n    address public admin;\r\n    uint public lasTransfer;\r\n\r\n    constructor() public {\r\n        admin = msg.sender;\r\n    }\r\n\r\n    modifier onlyAdmin {\r\n        require(msg.sender == admin, \"only owner can\");\r\n        _;\r\n    }\r\n\r\n    function setTransferCompleted(uint completed) public onlyAdmin {\r\n        lasTransfer = completed;\r\n    }\r\n\r\n    function upgradeTransfer(address newAdmin) public onlyAdmin {\r\n        Transfer upgraded = Transfer(newAdmin);\r\n        upgraded.setTransferCompleted(lasTransfer);\r\n    }\r\n}",
  "sourcePath": "C:\\Users\\Nikhil Meshram\\Downloads\\Staking-Pool\\src\\contracts\\Transfer.sol",
  "compiler": {
    "name": "solc",
    "version": "0.5.17+commit.d19bba13.Emscripten.clang"
  },
  "schemaVersion": "3.4.3",
  "updatedAt": "2022-02-07T11:40:29.315Z",
  "networkType": "ethereum",
  "devdoc": {
    "methods": {}
  },
  "userdoc": {
    "methods": {}
  }
}